{
  "_format": "hh-sol-artifact-1",
  "contractName": "SunFrogs",
  "sourceName": "contracts/SunFrogs.sol",
  "abi": [
    {
      "inputs": [],
      "stateMutability": "nonpayable",
      "type": "constructor"
    },
    {
      "anonymous": false,
      "inputs": [
        {
          "indexed": true,
          "internalType": "address",
          "name": "owner",
          "type": "address"
        },
        {
          "indexed": true,
          "internalType": "address",
          "name": "approved",
          "type": "address"
        },
        {
          "indexed": true,
          "internalType": "uint256",
          "name": "tokenId",
          "type": "uint256"
        }
      ],
      "name": "Approval",
      "type": "event"
    },
    {
      "anonymous": false,
      "inputs": [
        {
          "indexed": true,
          "internalType": "address",
          "name": "owner",
          "type": "address"
        },
        {
          "indexed": true,
          "internalType": "address",
          "name": "operator",
          "type": "address"
        },
        {
          "indexed": false,
          "internalType": "bool",
          "name": "approved",
          "type": "bool"
        }
      ],
      "name": "ApprovalForAll",
      "type": "event"
    },
    {
      "anonymous": false,
      "inputs": [
        {
          "indexed": true,
          "internalType": "address",
          "name": "previousOwner",
          "type": "address"
        },
        {
          "indexed": true,
          "internalType": "address",
          "name": "newOwner",
          "type": "address"
        }
      ],
      "name": "OwnershipTransferred",
      "type": "event"
    },
    {
      "anonymous": false,
      "inputs": [
        {
          "indexed": false,
          "internalType": "address",
          "name": "account",
          "type": "address"
        }
      ],
      "name": "Paused",
      "type": "event"
    },
    {
      "anonymous": false,
      "inputs": [
        {
          "indexed": true,
          "internalType": "address",
          "name": "from",
          "type": "address"
        },
        {
          "indexed": true,
          "internalType": "address",
          "name": "to",
          "type": "address"
        },
        {
          "indexed": true,
          "internalType": "uint256",
          "name": "tokenId",
          "type": "uint256"
        }
      ],
      "name": "Transfer",
      "type": "event"
    },
    {
      "anonymous": false,
      "inputs": [
        {
          "indexed": false,
          "internalType": "address",
          "name": "account",
          "type": "address"
        }
      ],
      "name": "Unpaused",
      "type": "event"
    },
    {
      "inputs": [
        {
          "internalType": "address",
          "name": "to",
          "type": "address"
        },
        {
          "internalType": "uint256",
          "name": "tokenId",
          "type": "uint256"
        }
      ],
      "name": "approve",
      "outputs": [],
      "stateMutability": "nonpayable",
      "type": "function"
    },
    {
      "inputs": [
        {
          "internalType": "address",
          "name": "owner",
          "type": "address"
        }
      ],
      "name": "balanceOf",
      "outputs": [
        {
          "internalType": "uint256",
          "name": "",
          "type": "uint256"
        }
      ],
      "stateMutability": "view",
      "type": "function"
    },
    {
      "inputs": [
        {
          "internalType": "uint256",
          "name": "tokensNumber",
          "type": "uint256"
        }
      ],
      "name": "buyFlys",
      "outputs": [],
      "stateMutability": "payable",
      "type": "function"
    },
    {
      "inputs": [],
      "name": "currentSupply",
      "outputs": [
        {
          "internalType": "uint256",
          "name": "",
          "type": "uint256"
        }
      ],
      "stateMutability": "view",
      "type": "function"
    },
    {
      "inputs": [
        {
          "internalType": "uint256",
          "name": "tokenId",
          "type": "uint256"
        }
      ],
      "name": "getApproved",
      "outputs": [
        {
          "internalType": "address",
          "name": "",
          "type": "address"
        }
      ],
      "stateMutability": "view",
      "type": "function"
    },
    {
      "inputs": [
        {
          "internalType": "address",
          "name": "owner",
          "type": "address"
        },
        {
          "internalType": "address",
          "name": "operator",
          "type": "address"
        }
      ],
      "name": "isApprovedForAll",
      "outputs": [
        {
          "internalType": "bool",
          "name": "",
          "type": "bool"
        }
      ],
      "stateMutability": "view",
      "type": "function"
    },
    {
      "inputs": [],
      "name": "maxTokensPerTransaction",
      "outputs": [
        {
          "internalType": "uint256",
          "name": "",
          "type": "uint256"
        }
      ],
      "stateMutability": "view",
      "type": "function"
    },
    {
      "inputs": [
        {
          "internalType": "address",
          "name": "to",
          "type": "address"
        },
        {
          "internalType": "uint256",
          "name": "tokenId",
          "type": "uint256"
        }
      ],
      "name": "mintGiveawayFlys",
      "outputs": [],
      "stateMutability": "nonpayable",
      "type": "function"
    },
    {
      "inputs": [],
      "name": "name",
      "outputs": [
        {
          "internalType": "string",
          "name": "",
          "type": "string"
        }
      ],
      "stateMutability": "view",
      "type": "function"
    },
    {
      "inputs": [],
      "name": "nftsPublicNumber",
      "outputs": [
        {
          "internalType": "uint256",
          "name": "",
          "type": "uint256"
        }
      ],
      "stateMutability": "view",
      "type": "function"
    },
    {
      "inputs": [],
      "name": "owner",
      "outputs": [
        {
          "internalType": "address",
          "name": "",
          "type": "address"
        }
      ],
      "stateMutability": "view",
      "type": "function"
    },
    {
      "inputs": [
        {
          "internalType": "uint256",
          "name": "tokenId",
          "type": "uint256"
        }
      ],
      "name": "ownerOf",
      "outputs": [
        {
          "internalType": "address",
          "name": "",
          "type": "address"
        }
      ],
      "stateMutability": "view",
      "type": "function"
    },
    {
      "inputs": [],
      "name": "pause",
      "outputs": [],
      "stateMutability": "nonpayable",
      "type": "function"
    },
    {
      "inputs": [],
      "name": "paused",
      "outputs": [
        {
          "internalType": "bool",
          "name": "",
          "type": "bool"
        }
      ],
      "stateMutability": "view",
      "type": "function"
    },
    {
      "inputs": [],
      "name": "renounceOwnership",
      "outputs": [],
      "stateMutability": "nonpayable",
      "type": "function"
    },
    {
      "inputs": [
        {
          "internalType": "address",
          "name": "to",
          "type": "address"
        }
      ],
      "name": "safeMint",
      "outputs": [],
      "stateMutability": "nonpayable",
      "type": "function"
    },
    {
      "inputs": [
        {
          "internalType": "address",
          "name": "from",
          "type": "address"
        },
        {
          "internalType": "address",
          "name": "to",
          "type": "address"
        },
        {
          "internalType": "uint256",
          "name": "tokenId",
          "type": "uint256"
        }
      ],
      "name": "safeTransferFrom",
      "outputs": [],
      "stateMutability": "nonpayable",
      "type": "function"
    },
    {
      "inputs": [
        {
          "internalType": "address",
          "name": "from",
          "type": "address"
        },
        {
          "internalType": "address",
          "name": "to",
          "type": "address"
        },
        {
          "internalType": "uint256",
          "name": "tokenId",
          "type": "uint256"
        },
        {
          "internalType": "bytes",
          "name": "_data",
          "type": "bytes"
        }
      ],
      "name": "safeTransferFrom",
      "outputs": [],
      "stateMutability": "nonpayable",
      "type": "function"
    },
    {
      "inputs": [
        {
          "internalType": "address",
          "name": "operator",
          "type": "address"
        },
        {
          "internalType": "bool",
          "name": "approved",
          "type": "bool"
        }
      ],
      "name": "setApprovalForAll",
      "outputs": [],
      "stateMutability": "nonpayable",
      "type": "function"
    },
    {
      "inputs": [
        {
          "internalType": "string",
          "name": "baseURIPrefix",
          "type": "string"
        }
      ],
      "name": "setBaseURI",
      "outputs": [],
      "stateMutability": "nonpayable",
      "type": "function"
    },
    {
      "inputs": [
        {
          "internalType": "bytes4",
          "name": "interfaceId",
          "type": "bytes4"
        }
      ],
      "name": "supportsInterface",
      "outputs": [
        {
          "internalType": "bool",
          "name": "",
          "type": "bool"
        }
      ],
      "stateMutability": "view",
      "type": "function"
    },
    {
      "inputs": [],
      "name": "symbol",
      "outputs": [
        {
          "internalType": "string",
          "name": "",
          "type": "string"
        }
      ],
      "stateMutability": "view",
      "type": "function"
    },
    {
      "inputs": [],
      "name": "tokenPrice",
      "outputs": [
        {
          "internalType": "uint256",
          "name": "",
          "type": "uint256"
        }
      ],
      "stateMutability": "view",
      "type": "function"
    },
    {
      "inputs": [
        {
          "internalType": "uint256",
          "name": "tokenId",
          "type": "uint256"
        }
      ],
      "name": "tokenURI",
      "outputs": [
        {
          "internalType": "string",
          "name": "",
          "type": "string"
        }
      ],
      "stateMutability": "view",
      "type": "function"
    },
    {
      "inputs": [
        {
          "internalType": "address",
          "name": "from",
          "type": "address"
        },
        {
          "internalType": "address",
          "name": "to",
          "type": "address"
        },
        {
          "internalType": "uint256",
          "name": "tokenId",
          "type": "uint256"
        }
      ],
      "name": "transferFrom",
      "outputs": [],
      "stateMutability": "nonpayable",
      "type": "function"
    },
    {
      "inputs": [
        {
          "internalType": "address",
          "name": "newOwner",
          "type": "address"
        }
      ],
      "name": "transferOwnership",
      "outputs": [],
      "stateMutability": "nonpayable",
      "type": "function"
    },
    {
      "inputs": [],
      "name": "unpause",
      "outputs": [],
      "stateMutability": "nonpayable",
      "type": "function"
    }
  ],
  "bytecode": "0x60806040526301312d006009553480156200001957600080fd5b506040518060400160405280600781526020017f4d4f4f4e464c59000000000000000000000000000000000000000000000000008152506040518060400160405280600581526020017f4d4e464c5900000000000000000000000000000000000000000000000000000081525081600090805190602001906200009e929190620001f6565b508060019080519060200190620000b7929190620001f6565b5050506000600760006101000a81548160ff021916908315150217905550620000f5620000e96200011260201b60201c565b6200011a60201b60201c565b6200010c600a620001e060201b620015031760201c565b6200030b565b600033905090565b6000600760019054906101000a900473ffffffffffffffffffffffffffffffffffffffff16905081600760016101000a81548173ffffffffffffffffffffffffffffffffffffffff021916908373ffffffffffffffffffffffffffffffffffffffff1602179055508173ffffffffffffffffffffffffffffffffffffffff168173ffffffffffffffffffffffffffffffffffffffff167f8be0079c531659141344cd1fd0a4f28419497f9722a3daafe3b4186f6b6457e060405160405180910390a35050565b6001816000016000828254019250508190555050565b8280546200020490620002a6565b90600052602060002090601f01602090048101928262000228576000855562000274565b82601f106200024357805160ff191683800117855562000274565b8280016001018555821562000274579182015b828111156200027357825182559160200191906001019062000256565b5b50905062000283919062000287565b5090565b5b80821115620002a257600081600090555060010162000288565b5090565b60006002820490506001821680620002bf57607f821691505b60208210811415620002d657620002d5620002dc565b5b50919050565b7f4e487b7100000000000000000000000000000000000000000000000000000000600052602260045260246000fd5b613c2e806200031b6000396000f3fe60806040526004361061019c5760003560e01c806372e36319116100ec578063a22cb4651161008a578063cb9c3eb911610064578063cb9c3eb91461058c578063e985e9c5146105a8578063f2fde38b146105e5578063f85aff941461060e5761019c565b8063a22cb465146104fd578063b88d4fde14610526578063c87b56dd1461054f5761019c565b80638456cb59116100c65780638456cb59146104655780638da5cb5b1461047c57806395d89b41146104a75780639f8b7a7c146104d25761019c565b806372e36319146103e6578063771282f61461040f5780637ff9b5961461043a5761019c565b806340d097c3116101595780635c975abb116101335780635c975abb1461032a5780636352211e1461035557806370a0823114610392578063715018a6146103cf5761019c565b806340d097c3146102af57806342842e0e146102d857806355f804b3146103015761019c565b806301ffc9a7146101a157806306fdde03146101de578063081812fc14610209578063095ea7b31461024657806323b872dd1461026f5780633f4ba83a14610298575b600080fd5b3480156101ad57600080fd5b506101c860048036038101906101c39190612894565b610639565b6040516101d59190612df3565b60405180910390f35b3480156101ea57600080fd5b506101f361071b565b6040516102009190612e0e565b60405180910390f35b34801561021557600080fd5b50610230600480360381019061022b9190612927565b6107ad565b60405161023d9190612d8c565b60405180910390f35b34801561025257600080fd5b5061026d60048036038101906102689190612858565b610832565b005b34801561027b57600080fd5b5061029660048036038101906102919190612752565b61094a565b005b3480156102a457600080fd5b506102ad6109aa565b005b3480156102bb57600080fd5b506102d660048036038101906102d191906126ed565b610a30565b005b3480156102e457600080fd5b506102ff60048036038101906102fa9190612752565b610acc565b005b34801561030d57600080fd5b50610328600480360381019061032391906128e6565b610aec565b005b34801561033657600080fd5b5061033f610b82565b60405161034c9190612df3565b60405180910390f35b34801561036157600080fd5b5061037c60048036038101906103779190612927565b610b99565b6040516103899190612d8c565b60405180910390f35b34801561039e57600080fd5b506103b960048036038101906103b491906126ed565b610c4b565b6040516103c69190613130565b60405180910390f35b3480156103db57600080fd5b506103e4610d03565b005b3480156103f257600080fd5b5061040d60048036038101906104089190612858565b610d8b565b005b34801561041b57600080fd5b50610424610e59565b6040516104319190613130565b60405180910390f35b34801561044657600080fd5b5061044f610e6a565b60405161045c9190613130565b60405180910390f35b34801561047157600080fd5b5061047a610e70565b005b34801561048857600080fd5b50610491610ef6565b60405161049e9190612d8c565b60405180910390f35b3480156104b357600080fd5b506104bc610f20565b6040516104c99190612e0e565b60405180910390f35b3480156104de57600080fd5b506104e7610fb2565b6040516104f49190613130565b60405180910390f35b34801561050957600080fd5b50610524600480360381019061051f919061281c565b610fb8565b005b34801561053257600080fd5b5061054d600480360381019061054891906127a1565b611139565b005b34801561055b57600080fd5b5061057660048036038101906105719190612927565b61119b565b6040516105839190612e0e565b60405180910390f35b6105a660048036038101906105a19190612927565b6111ad565b005b3480156105b457600080fd5b506105cf60048036038101906105ca9190612716565b611372565b6040516105dc9190612df3565b60405180910390f35b3480156105f157600080fd5b5061060c600480360381019061060791906126ed565b611406565b005b34801561061a57600080fd5b506106236114fe565b6040516106309190613130565b60405180910390f35b60007f80ac58cd000000000000000000000000000000000000000000000000000000007bffffffffffffffffffffffffffffffffffffffffffffffffffffffff1916827bffffffffffffffffffffffffffffffffffffffffffffffffffffffff1916148061070457507f5b5e139f000000000000000000000000000000000000000000000000000000007bffffffffffffffffffffffffffffffffffffffffffffffffffffffff1916827bffffffffffffffffffffffffffffffffffffffffffffffffffffffff1916145b80610714575061071382611519565b5b9050919050565b60606000805461072a906133e0565b80601f0160208091040260200160405190810160405280929190818152602001828054610756906133e0565b80156107a35780601f10610778576101008083540402835291602001916107a3565b820191906000526020600020905b81548152906001019060200180831161078657829003601f168201915b5050505050905090565b60006107b882611583565b6107f7576040517f08c379a00000000000000000000000000000000000000000000000000000000081526004016107ee90613070565b60405180910390fd5b6004600083815260200190815260200160002060009054906101000a900473ffffffffffffffffffffffffffffffffffffffff169050919050565b600061083d82610b99565b90508073ffffffffffffffffffffffffffffffffffffffff168373ffffffffffffffffffffffffffffffffffffffff1614156108ae576040517f08c379a00000000000000000000000000000000000000000000000000000000081526004016108a5906130f0565b60405180910390fd5b8073ffffffffffffffffffffffffffffffffffffffff166108cd6115ef565b73ffffffffffffffffffffffffffffffffffffffff1614806108fc57506108fb816108f66115ef565b611372565b5b61093b576040517f08c379a000000000000000000000000000000000000000000000000000000000815260040161093290612f90565b60405180910390fd5b61094583836115f7565b505050565b61095b6109556115ef565b826116b0565b61099a576040517f08c379a000000000000000000000000000000000000000000000000000000000815260040161099190613110565b60405180910390fd5b6109a583838361178e565b505050565b6109b26115ef565b73ffffffffffffffffffffffffffffffffffffffff166109d0610ef6565b73ffffffffffffffffffffffffffffffffffffffff1614610a26576040517f08c379a0000000000000000000000000000000000000000000000000000000008152600401610a1d90613090565b60405180910390fd5b610a2e6119ea565b565b610a386115ef565b73ffffffffffffffffffffffffffffffffffffffff16610a56610ef6565b73ffffffffffffffffffffffffffffffffffffffff1614610aac576040517f08c379a0000000000000000000000000000000000000000000000000000000008152600401610aa390613090565b60405180910390fd5b610abf81610aba600a611a8c565b611a9a565b610ac9600a611503565b50565b610ae783838360405180602001604052806000815250611139565b505050565b610af46115ef565b73ffffffffffffffffffffffffffffffffffffffff16610b12610ef6565b73ffffffffffffffffffffffffffffffffffffffff1614610b68576040517f08c379a0000000000000000000000000000000000000000000000000000000008152600401610b5f90613090565b60405180910390fd5b8060089080519060200190610b7e929190612511565b5050565b6000600760009054906101000a900460ff16905090565b6000806002600084815260200190815260200160002060009054906101000a900473ffffffffffffffffffffffffffffffffffffffff169050600073ffffffffffffffffffffffffffffffffffffffff168173ffffffffffffffffffffffffffffffffffffffff161415610c42576040517f08c379a0000000000000000000000000000000000000000000000000000000008152600401610c3990612fd0565b60405180910390fd5b80915050919050565b60008073ffffffffffffffffffffffffffffffffffffffff168273ffffffffffffffffffffffffffffffffffffffff161415610cbc576040517f08c379a0000000000000000000000000000000000000000000000000000000008152600401610cb390612fb0565b60405180910390fd5b600360008373ffffffffffffffffffffffffffffffffffffffff1673ffffffffffffffffffffffffffffffffffffffff168152602001908152602001600020549050919050565b610d0b6115ef565b73ffffffffffffffffffffffffffffffffffffffff16610d29610ef6565b73ffffffffffffffffffffffffffffffffffffffff1614610d7f576040517f08c379a0000000000000000000000000000000000000000000000000000000008152600401610d7690613090565b60405180910390fd5b610d896000611ab8565b565b610d936115ef565b73ffffffffffffffffffffffffffffffffffffffff16610db1610ef6565b73ffffffffffffffffffffffffffffffffffffffff1614610e07576040517f08c379a0000000000000000000000000000000000000000000000000000000008152600401610dfe90613090565b60405180910390fd5b6122b88111610e4b576040517f08c379a0000000000000000000000000000000000000000000000000000000008152600401610e4290612e30565b60405180910390fd5b610e558282611a9a565b5050565b6000610e65600a611a8c565b905090565b60095481565b610e786115ef565b73ffffffffffffffffffffffffffffffffffffffff16610e96610ef6565b73ffffffffffffffffffffffffffffffffffffffff1614610eec576040517f08c379a0000000000000000000000000000000000000000000000000000000008152600401610ee390613090565b60405180910390fd5b610ef4611b7e565b565b6000600760019054906101000a900473ffffffffffffffffffffffffffffffffffffffff16905090565b606060018054610f2f906133e0565b80601f0160208091040260200160405190810160405280929190818152602001828054610f5b906133e0565b8015610fa85780601f10610f7d57610100808354040283529160200191610fa8565b820191906000526020600020905b815481529060010190602001808311610f8b57829003601f168201915b5050505050905090565b6122b881565b610fc06115ef565b73ffffffffffffffffffffffffffffffffffffffff168273ffffffffffffffffffffffffffffffffffffffff16141561102e576040517f08c379a000000000000000000000000000000000000000000000000000000000815260040161102590612f10565b60405180910390fd5b806005600061103b6115ef565b73ffffffffffffffffffffffffffffffffffffffff1673ffffffffffffffffffffffffffffffffffffffff16815260200190815260200160002060008473ffffffffffffffffffffffffffffffffffffffff1673ffffffffffffffffffffffffffffffffffffffff16815260200190815260200160002060006101000a81548160ff0219169083151502179055508173ffffffffffffffffffffffffffffffffffffffff166110e86115ef565b73ffffffffffffffffffffffffffffffffffffffff167f17307eab39ab6107e8899845ad3d59bd9653f200f220920489ca2b5937696c318360405161112d9190612df3565b60405180910390a35050565b61114a6111446115ef565b836116b0565b611189576040517f08c379a000000000000000000000000000000000000000000000000000000000815260040161118090613110565b60405180910390fd5b61119584848484611c21565b50505050565b60606111a682611c7d565b9050919050565b6111b5610b82565b156111f5576040517f08c379a00000000000000000000000000000000000000000000000000000000081526004016111ec90612f70565b60405180910390fd5b60008111611238576040517f08c379a000000000000000000000000000000000000000000000000000000000815260040161122f90613010565b60405180910390fd5b601481111561127c576040517f08c379a000000000000000000000000000000000000000000000000000000000815260040161127390612ff0565b60405180910390fd5b6122b861129b8261128d600a611a8c565b611dcf90919063ffffffff16565b11156112dc576040517f08c379a00000000000000000000000000000000000000000000000000000000081526004016112d390612ed0565b60405180910390fd5b346112f282600954611de590919063ffffffff16565b1115611333576040517f08c379a000000000000000000000000000000000000000000000000000000000815260040161132a90612f50565b60405180910390fd5b60005b8181101561136e576113513361134c600a611a8c565b611a9a565b61135b600a611503565b808061136690613443565b915050611336565b5050565b6000600560008473ffffffffffffffffffffffffffffffffffffffff1673ffffffffffffffffffffffffffffffffffffffff16815260200190815260200160002060008373ffffffffffffffffffffffffffffffffffffffff1673ffffffffffffffffffffffffffffffffffffffff16815260200190815260200160002060009054906101000a900460ff16905092915050565b61140e6115ef565b73ffffffffffffffffffffffffffffffffffffffff1661142c610ef6565b73ffffffffffffffffffffffffffffffffffffffff1614611482576040517f08c379a000000000000000000000000000000000000000000000000000000000815260040161147990613090565b60405180910390fd5b600073ffffffffffffffffffffffffffffffffffffffff168173ffffffffffffffffffffffffffffffffffffffff1614156114f2576040517f08c379a00000000000000000000000000000000000000000000000000000000081526004016114e990612e90565b60405180910390fd5b6114fb81611ab8565b50565b601481565b6001816000016000828254019250508190555050565b60007f01ffc9a7000000000000000000000000000000000000000000000000000000007bffffffffffffffffffffffffffffffffffffffffffffffffffffffff1916827bffffffffffffffffffffffffffffffffffffffffffffffffffffffff1916149050919050565b60008073ffffffffffffffffffffffffffffffffffffffff166002600084815260200190815260200160002060009054906101000a900473ffffffffffffffffffffffffffffffffffffffff1673ffffffffffffffffffffffffffffffffffffffff1614159050919050565b600033905090565b816004600083815260200190815260200160002060006101000a81548173ffffffffffffffffffffffffffffffffffffffff021916908373ffffffffffffffffffffffffffffffffffffffff160217905550808273ffffffffffffffffffffffffffffffffffffffff1661166a83610b99565b73ffffffffffffffffffffffffffffffffffffffff167f8c5be1e5ebec7d5bd14f71427d1e84f3dd0314c0f7b2291e5b200ac8c7c3b92560405160405180910390a45050565b60006116bb82611583565b6116fa576040517f08c379a00000000000000000000000000000000000000000000000000000000081526004016116f190612f30565b60405180910390fd5b600061170583610b99565b90508073ffffffffffffffffffffffffffffffffffffffff168473ffffffffffffffffffffffffffffffffffffffff16148061177457508373ffffffffffffffffffffffffffffffffffffffff1661175c846107ad565b73ffffffffffffffffffffffffffffffffffffffff16145b8061178557506117848185611372565b5b91505092915050565b8273ffffffffffffffffffffffffffffffffffffffff166117ae82610b99565b73ffffffffffffffffffffffffffffffffffffffff1614611804576040517f08c379a00000000000000000000000000000000000000000000000000000000081526004016117fb906130b0565b60405180910390fd5b600073ffffffffffffffffffffffffffffffffffffffff168273ffffffffffffffffffffffffffffffffffffffff161415611874576040517f08c379a000000000000000000000000000000000000000000000000000000000815260040161186b90612ef0565b60405180910390fd5b61187f838383611dfb565b61188a6000826115f7565b6001600360008573ffffffffffffffffffffffffffffffffffffffff1673ffffffffffffffffffffffffffffffffffffffff16815260200190815260200160002060008282546118da91906132f6565b925050819055506001600360008473ffffffffffffffffffffffffffffffffffffffff1673ffffffffffffffffffffffffffffffffffffffff16815260200190815260200160002060008282546119319190613215565b92505081905550816002600083815260200190815260200160002060006101000a81548173ffffffffffffffffffffffffffffffffffffffff021916908373ffffffffffffffffffffffffffffffffffffffff160217905550808273ffffffffffffffffffffffffffffffffffffffff168473ffffffffffffffffffffffffffffffffffffffff167fddf252ad1be2c89b69c2b068fc378daa952ba7f163c4a11628f55a4df523b3ef60405160405180910390a4505050565b6119f2610b82565b611a31576040517f08c379a0000000000000000000000000000000000000000000000000000000008152600401611a2890612e50565b60405180910390fd5b6000600760006101000a81548160ff0219169083151502179055507f5db9ee0a495bf2e6ff9c91a7834c1ba4fdd244a5e8aa4e537bd38aeae4b073aa611a756115ef565b604051611a829190612d8c565b60405180910390a1565b600081600001549050919050565b611ab4828260405180602001604052806000815250611e53565b5050565b6000600760019054906101000a900473ffffffffffffffffffffffffffffffffffffffff16905081600760016101000a81548173ffffffffffffffffffffffffffffffffffffffff021916908373ffffffffffffffffffffffffffffffffffffffff1602179055508173ffffffffffffffffffffffffffffffffffffffff168173ffffffffffffffffffffffffffffffffffffffff167f8be0079c531659141344cd1fd0a4f28419497f9722a3daafe3b4186f6b6457e060405160405180910390a35050565b611b86610b82565b15611bc6576040517f08c379a0000000000000000000000000000000000000000000000000000000008152600401611bbd90612f70565b60405180910390fd5b6001600760006101000a81548160ff0219169083151502179055507f62e78cea01bee320cd4e420270b5ea74000d11b0c9f74754ebdbfc544b05a258611c0a6115ef565b604051611c179190612d8c565b60405180910390a1565b611c2c84848461178e565b611c3884848484611eae565b611c77576040517f08c379a0000000000000000000000000000000000000000000000000000000008152600401611c6e90612e70565b60405180910390fd5b50505050565b6060611c8882611583565b611cc7576040517f08c379a0000000000000000000000000000000000000000000000000000000008152600401611cbe90613050565b60405180910390fd5b6000600660008481526020019081526020016000208054611ce7906133e0565b80601f0160208091040260200160405190810160405280929190818152602001828054611d13906133e0565b8015611d605780601f10611d3557610100808354040283529160200191611d60565b820191906000526020600020905b815481529060010190602001808311611d4357829003601f168201915b505050505090506000611d71612045565b9050600081511415611d87578192505050611dca565b600082511115611dbc578082604051602001611da4929190612d68565b60405160208183030381529060405292505050611dca565b611dc5846120d7565b925050505b919050565b60008183611ddd9190613215565b905092915050565b60008183611df3919061329c565b905092915050565b611e03610b82565b15611e43576040517f08c379a0000000000000000000000000000000000000000000000000000000008152600401611e3a90612f70565b60405180910390fd5b611e4e83838361217e565b505050565b611e5d8383612183565b611e6a6000848484611eae565b611ea9576040517f08c379a0000000000000000000000000000000000000000000000000000000008152600401611ea090612e70565b60405180910390fd5b505050565b6000611ecf8473ffffffffffffffffffffffffffffffffffffffff16612351565b15612038578373ffffffffffffffffffffffffffffffffffffffff1663150b7a02611ef86115ef565b8786866040518563ffffffff1660e01b8152600401611f1a9493929190612da7565b602060405180830381600087803b158015611f3457600080fd5b505af1925050508015611f6557506040513d601f19601f82011682018060405250810190611f6291906128bd565b60015b611fe8573d8060008114611f95576040519150601f19603f3d011682016040523d82523d6000602084013e611f9a565b606091505b50600081511415611fe0576040517f08c379a0000000000000000000000000000000000000000000000000000000008152600401611fd790612e70565b60405180910390fd5b805181602001fd5b63150b7a0260e01b7bffffffffffffffffffffffffffffffffffffffffffffffffffffffff1916817bffffffffffffffffffffffffffffffffffffffffffffffffffffffff19161491505061203d565b600190505b949350505050565b606060088054612054906133e0565b80601f0160208091040260200160405190810160405280929190818152602001828054612080906133e0565b80156120cd5780601f106120a2576101008083540402835291602001916120cd565b820191906000526020600020905b8154815290600101906020018083116120b057829003601f168201915b5050505050905090565b60606120e282611583565b612121576040517f08c379a0000000000000000000000000000000000000000000000000000000008152600401612118906130d0565b60405180910390fd5b600061212b612045565b9050600081511161214b5760405180602001604052806000815250612176565b8061215584612364565b604051602001612166929190612d68565b6040516020818303038152906040525b915050919050565b505050565b600073ffffffffffffffffffffffffffffffffffffffff168273ffffffffffffffffffffffffffffffffffffffff1614156121f3576040517f08c379a00000000000000000000000000000000000000000000000000000000081526004016121ea90613030565b60405180910390fd5b6121fc81611583565b1561223c576040517f08c379a000000000000000000000000000000000000000000000000000000000815260040161223390612eb0565b60405180910390fd5b61224860008383611dfb565b6001600360008473ffffffffffffffffffffffffffffffffffffffff1673ffffffffffffffffffffffffffffffffffffffff16815260200190815260200160002060008282546122989190613215565b92505081905550816002600083815260200190815260200160002060006101000a81548173ffffffffffffffffffffffffffffffffffffffff021916908373ffffffffffffffffffffffffffffffffffffffff160217905550808273ffffffffffffffffffffffffffffffffffffffff16600073ffffffffffffffffffffffffffffffffffffffff167fddf252ad1be2c89b69c2b068fc378daa952ba7f163c4a11628f55a4df523b3ef60405160405180910390a45050565b600080823b905060008111915050919050565b606060008214156123ac576040518060400160405280600181526020017f3000000000000000000000000000000000000000000000000000000000000000815250905061250c565b600082905060005b600082146123de5780806123c790613443565b915050600a826123d7919061326b565b91506123b4565b60008167ffffffffffffffff811115612420577f4e487b7100000000000000000000000000000000000000000000000000000000600052604160045260246000fd5b6040519080825280601f01601f1916602001820160405280156124525781602001600182028036833780820191505090505b5090505b600085146125055760018261246b91906132f6565b9150600a8561247a919061348c565b60306124869190613215565b60f81b8183815181106124c2577f4e487b7100000000000000000000000000000000000000000000000000000000600052603260045260246000fd5b60200101907effffffffffffffffffffffffffffffffffffffffffffffffffffffffffffff1916908160001a905350600a856124fe919061326b565b9450612456565b8093505050505b919050565b82805461251d906133e0565b90600052602060002090601f01602090048101928261253f5760008555612586565b82601f1061255857805160ff1916838001178555612586565b82800160010185558215612586579182015b8281111561258557825182559160200191906001019061256a565b5b5090506125939190612597565b5090565b5b808211156125b0576000816000905550600101612598565b5090565b60006125c76125c284613170565b61314b565b9050828152602081018484840111156125df57600080fd5b6125ea84828561339e565b509392505050565b6000612605612600846131a1565b61314b565b90508281526020810184848401111561261d57600080fd5b61262884828561339e565b509392505050565b60008135905061263f81613b9c565b92915050565b60008135905061265481613bb3565b92915050565b60008135905061266981613bca565b92915050565b60008151905061267e81613bca565b92915050565b600082601f83011261269557600080fd5b81356126a58482602086016125b4565b91505092915050565b600082601f8301126126bf57600080fd5b81356126cf8482602086016125f2565b91505092915050565b6000813590506126e781613be1565b92915050565b6000602082840312156126ff57600080fd5b600061270d84828501612630565b91505092915050565b6000806040838503121561272957600080fd5b600061273785828601612630565b925050602061274885828601612630565b9150509250929050565b60008060006060848603121561276757600080fd5b600061277586828701612630565b935050602061278686828701612630565b9250506040612797868287016126d8565b9150509250925092565b600080600080608085870312156127b757600080fd5b60006127c587828801612630565b94505060206127d687828801612630565b93505060406127e7878288016126d8565b925050606085013567ffffffffffffffff81111561280457600080fd5b61281087828801612684565b91505092959194509250565b6000806040838503121561282f57600080fd5b600061283d85828601612630565b925050602061284e85828601612645565b9150509250929050565b6000806040838503121561286b57600080fd5b600061287985828601612630565b925050602061288a858286016126d8565b9150509250929050565b6000602082840312156128a657600080fd5b60006128b48482850161265a565b91505092915050565b6000602082840312156128cf57600080fd5b60006128dd8482850161266f565b91505092915050565b6000602082840312156128f857600080fd5b600082013567ffffffffffffffff81111561291257600080fd5b61291e848285016126ae565b91505092915050565b60006020828403121561293957600080fd5b6000612947848285016126d8565b91505092915050565b6129598161332a565b82525050565b6129688161333c565b82525050565b6000612979826131d2565b61298381856131e8565b93506129938185602086016133ad565b61299c81613579565b840191505092915050565b60006129b2826131dd565b6129bc81856131f9565b93506129cc8185602086016133ad565b6129d581613579565b840191505092915050565b60006129eb826131dd565b6129f5818561320a565b9350612a058185602086016133ad565b80840191505092915050565b6000612a1e6017836131f9565b9150612a298261358a565b602082019050919050565b6000612a416014836131f9565b9150612a4c826135b3565b602082019050919050565b6000612a646032836131f9565b9150612a6f826135dc565b604082019050919050565b6000612a876026836131f9565b9150612a928261362b565b604082019050919050565b6000612aaa601c836131f9565b9150612ab58261367a565b602082019050919050565b6000612acd6020836131f9565b9150612ad8826136a3565b602082019050919050565b6000612af06024836131f9565b9150612afb826136cc565b604082019050919050565b6000612b136019836131f9565b9150612b1e8261371b565b602082019050919050565b6000612b36602c836131f9565b9150612b4182613744565b604082019050919050565b6000612b596035836131f9565b9150612b6482613793565b604082019050919050565b6000612b7c6010836131f9565b9150612b87826137e2565b602082019050919050565b6000612b9f6038836131f9565b9150612baa8261380b565b604082019050919050565b6000612bc2602a836131f9565b9150612bcd8261385a565b604082019050919050565b6000612be56029836131f9565b9150612bf0826138a9565b604082019050919050565b6000612c08601c836131f9565b9150612c13826138f8565b602082019050919050565b6000612c2b6021836131f9565b9150612c3682613921565b604082019050919050565b6000612c4e6020836131f9565b9150612c5982613970565b602082019050919050565b6000612c716031836131f9565b9150612c7c82613999565b604082019050919050565b6000612c94602c836131f9565b9150612c9f826139e8565b604082019050919050565b6000612cb76020836131f9565b9150612cc282613a37565b602082019050919050565b6000612cda6029836131f9565b9150612ce582613a60565b604082019050919050565b6000612cfd602f836131f9565b9150612d0882613aaf565b604082019050919050565b6000612d206021836131f9565b9150612d2b82613afe565b604082019050919050565b6000612d436031836131f9565b9150612d4e82613b4d565b604082019050919050565b612d6281613394565b82525050565b6000612d7482856129e0565b9150612d8082846129e0565b91508190509392505050565b6000602082019050612da16000830184612950565b92915050565b6000608082019050612dbc6000830187612950565b612dc96020830186612950565b612dd66040830185612d59565b8181036060830152612de8818461296e565b905095945050505050565b6000602082019050612e08600083018461295f565b92915050565b60006020820190508181036000830152612e2881846129a7565b905092915050565b60006020820190508181036000830152612e4981612a11565b9050919050565b60006020820190508181036000830152612e6981612a34565b9050919050565b60006020820190508181036000830152612e8981612a57565b9050919050565b60006020820190508181036000830152612ea981612a7a565b9050919050565b60006020820190508181036000830152612ec981612a9d565b9050919050565b60006020820190508181036000830152612ee981612ac0565b9050919050565b60006020820190508181036000830152612f0981612ae3565b9050919050565b60006020820190508181036000830152612f2981612b06565b9050919050565b60006020820190508181036000830152612f4981612b29565b9050919050565b60006020820190508181036000830152612f6981612b4c565b9050919050565b60006020820190508181036000830152612f8981612b6f565b9050919050565b60006020820190508181036000830152612fa981612b92565b9050919050565b60006020820190508181036000830152612fc981612bb5565b9050919050565b60006020820190508181036000830152612fe981612bd8565b9050919050565b6000602082019050818103600083015261300981612bfb565b9050919050565b6000602082019050818103600083015261302981612c1e565b9050919050565b6000602082019050818103600083015261304981612c41565b9050919050565b6000602082019050818103600083015261306981612c64565b9050919050565b6000602082019050818103600083015261308981612c87565b9050919050565b600060208201905081810360008301526130a981612caa565b9050919050565b600060208201905081810360008301526130c981612ccd565b9050919050565b600060208201905081810360008301526130e981612cf0565b9050919050565b6000602082019050818103600083015261310981612d13565b9050919050565b6000602082019050818103600083015261312981612d36565b9050919050565b60006020820190506131456000830184612d59565b92915050565b6000613155613166565b90506131618282613412565b919050565b6000604051905090565b600067ffffffffffffffff82111561318b5761318a61354a565b5b61319482613579565b9050602081019050919050565b600067ffffffffffffffff8211156131bc576131bb61354a565b5b6131c582613579565b9050602081019050919050565b600081519050919050565b600081519050919050565b600082825260208201905092915050565b600082825260208201905092915050565b600081905092915050565b600061322082613394565b915061322b83613394565b9250827fffffffffffffffffffffffffffffffffffffffffffffffffffffffffffffffff038211156132605761325f6134bd565b5b828201905092915050565b600061327682613394565b915061328183613394565b925082613291576132906134ec565b5b828204905092915050565b60006132a782613394565b91506132b283613394565b9250817fffffffffffffffffffffffffffffffffffffffffffffffffffffffffffffffff04831182151516156132eb576132ea6134bd565b5b828202905092915050565b600061330182613394565b915061330c83613394565b92508282101561331f5761331e6134bd565b5b828203905092915050565b600061333582613374565b9050919050565b60008115159050919050565b60007fffffffff0000000000000000000000000000000000000000000000000000000082169050919050565b600073ffffffffffffffffffffffffffffffffffffffff82169050919050565b6000819050919050565b82818337600083830152505050565b60005b838110156133cb5780820151818401526020810190506133b0565b838111156133da576000848401525b50505050565b600060028204905060018216806133f857607f821691505b6020821081141561340c5761340b61351b565b5b50919050565b61341b82613579565b810181811067ffffffffffffffff8211171561343a5761343961354a565b5b80604052505050565b600061344e82613394565b91507fffffffffffffffffffffffffffffffffffffffffffffffffffffffffffffffff821415613481576134806134bd565b5b600182019050919050565b600061349782613394565b91506134a283613394565b9250826134b2576134b16134ec565b5b828206905092915050565b7f4e487b7100000000000000000000000000000000000000000000000000000000600052601160045260246000fd5b7f4e487b7100000000000000000000000000000000000000000000000000000000600052601260045260246000fd5b7f4e487b7100000000000000000000000000000000000000000000000000000000600052602260045260246000fd5b7f4e487b7100000000000000000000000000000000000000000000000000000000600052604160045260246000fd5b6000601f19601f8301169050919050565b7f53616c6520686173206e6f7420656e6465642079657421000000000000000000600082015250565b7f5061757361626c653a206e6f7420706175736564000000000000000000000000600082015250565b7f4552433732313a207472616e7366657220746f206e6f6e20455243373231526560008201527f63656976657220696d706c656d656e7465720000000000000000000000000000602082015250565b7f4f776e61626c653a206e6577206f776e657220697320746865207a65726f206160008201527f6464726573730000000000000000000000000000000000000000000000000000602082015250565b7f4552433732313a20746f6b656e20616c7265616479206d696e74656400000000600082015250565b7f4e6f206d6f726520746f6b656e73206c65667420746f206265206d696e746564600082015250565b7f4552433732313a207472616e7366657220746f20746865207a65726f2061646460008201527f7265737300000000000000000000000000000000000000000000000000000000602082015250565b7f4552433732313a20617070726f766520746f2063616c6c657200000000000000600082015250565b7f4552433732313a206f70657261746f7220717565727920666f72206e6f6e657860008201527f697374656e7420746f6b656e0000000000000000000000000000000000000000602082015250565b7f4e6f7420656e6f7567682065746865722073656e74202c20707269636520697360008201527f20302e30322065746865722070657220746f6b656e0000000000000000000000602082015250565b7f5061757361626c653a2070617573656400000000000000000000000000000000600082015250565b7f4552433732313a20617070726f76652063616c6c6572206973206e6f74206f7760008201527f6e6572206e6f7220617070726f76656420666f7220616c6c0000000000000000602082015250565b7f4552433732313a2062616c616e636520717565727920666f7220746865207a6560008201527f726f206164647265737300000000000000000000000000000000000000000000602082015250565b7f4552433732313a206f776e657220717565727920666f72206e6f6e657869737460008201527f656e7420746f6b656e0000000000000000000000000000000000000000000000602082015250565b7f4578636565646564206d617820746f6b656e7320706572206d696e7400000000600082015250565b7f4e756d626572206f66206d696e7473206d7573742062652061746c656173742060008201527f3100000000000000000000000000000000000000000000000000000000000000602082015250565b7f4552433732313a206d696e7420746f20746865207a65726f2061646472657373600082015250565b7f45524337323155524953746f726167653a2055524920717565727920666f722060008201527f6e6f6e6578697374656e7420746f6b656e000000000000000000000000000000602082015250565b7f4552433732313a20617070726f76656420717565727920666f72206e6f6e657860008201527f697374656e7420746f6b656e0000000000000000000000000000000000000000602082015250565b7f4f776e61626c653a2063616c6c6572206973206e6f7420746865206f776e6572600082015250565b7f4552433732313a207472616e73666572206f6620746f6b656e2074686174206960008201527f73206e6f74206f776e0000000000000000000000000000000000000000000000602082015250565b7f4552433732314d657461646174613a2055524920717565727920666f72206e6f60008201527f6e6578697374656e7420746f6b656e0000000000000000000000000000000000602082015250565b7f4552433732313a20617070726f76616c20746f2063757272656e74206f776e6560008201527f7200000000000000000000000000000000000000000000000000000000000000602082015250565b7f4552433732313a207472616e736665722063616c6c6572206973206e6f74206f60008201527f776e6572206e6f7220617070726f766564000000000000000000000000000000602082015250565b613ba58161332a565b8114613bb057600080fd5b50565b613bbc8161333c565b8114613bc757600080fd5b50565b613bd381613348565b8114613bde57600080fd5b50565b613bea81613394565b8114613bf557600080fd5b5056fea264697066735822122063f2e7bee09a4177fad0259abb9613c50945121e12c5f97a16d2e625b60be8aa64736f6c63430008040033",
  "linkReferences": {},
  "deployedLinkReferences": {}
}